{
  "contractName": "GelatoSwap",
  "abi": [
    {
      "inputs": [
        {
          "internalType": "contract Gelatoken",
          "name": "_gelaToken",
          "type": "address"
        }
      ],
      "stateMutability": "nonpayable",
      "type": "constructor"
    },
    {
      "anonymous": false,
      "inputs": [
        {
          "indexed": false,
          "internalType": "address",
          "name": "account",
          "type": "address"
        },
        {
          "indexed": false,
          "internalType": "address",
          "name": "token",
          "type": "address"
        },
        {
          "indexed": false,
          "internalType": "uint256",
          "name": "amount",
          "type": "uint256"
        },
        {
          "indexed": false,
          "internalType": "uint256",
          "name": "rate",
          "type": "uint256"
        }
      ],
      "name": "TokenPurchased",
      "type": "event"
    },
    {
      "anonymous": false,
      "inputs": [
        {
          "indexed": false,
          "internalType": "address",
          "name": "sender",
          "type": "address"
        },
        {
          "indexed": false,
          "internalType": "address",
          "name": "recipient",
          "type": "address"
        },
        {
          "indexed": false,
          "internalType": "uint256",
          "name": "amountBought",
          "type": "uint256"
        },
        {
          "indexed": false,
          "internalType": "uint256",
          "name": "amountSent",
          "type": "uint256"
        }
      ],
      "name": "TokenSold",
      "type": "event"
    },
    {
      "inputs": [],
      "name": "gelaToken",
      "outputs": [
        {
          "internalType": "contract Gelatoken",
          "name": "",
          "type": "address"
        }
      ],
      "stateMutability": "view",
      "type": "function"
    },
    {
      "inputs": [],
      "name": "rate",
      "outputs": [
        {
          "internalType": "uint256",
          "name": "",
          "type": "uint256"
        }
      ],
      "stateMutability": "view",
      "type": "function"
    },
    {
      "inputs": [],
      "name": "buyTokens",
      "outputs": [],
      "stateMutability": "payable",
      "type": "function"
    },
    {
      "inputs": [
        {
          "internalType": "address",
          "name": "account",
          "type": "address"
        }
      ],
      "name": "checkBalance",
      "outputs": [],
      "stateMutability": "view",
      "type": "function"
    },
    {
      "inputs": [
        {
          "internalType": "uint256",
          "name": "_amount",
          "type": "uint256"
        }
      ],
      "name": "sellTokens",
      "outputs": [],
      "stateMutability": "nonpayable",
      "type": "function"
    }
  ],
  "bytecode": "0x6080604052606460015534801561001557600080fd5b50604051610b72380380610b72833981810160405281019061003791906100f2565b806000806101000a81548173ffffffffffffffffffffffffffffffffffffffff021916908373ffffffffffffffffffffffffffffffffffffffff1602179055505061011f565b600080fd5b600073ffffffffffffffffffffffffffffffffffffffff82169050919050565b60006100ad82610082565b9050919050565b60006100bf826100a2565b9050919050565b6100cf816100b4565b81146100da57600080fd5b50565b6000815190506100ec816100c6565b92915050565b6000602082840312156101085761010761007d565b5b6000610116848285016100dd565b91505092915050565b610a448061012e6000396000f3fe60806040526004361061004a5760003560e01c80632c4e722e1461004f5780635f5152261461007a5780636c11bcd3146100a3578063d0febe4c146100cc578063e9a91cb5146100d6575b600080fd5b34801561005b57600080fd5b50610064610101565b60405161007191906105ab565b60405180910390f35b34801561008657600080fd5b506100a1600480360381019061009c9190610629565b610107565b005b3480156100af57600080fd5b506100ca60048036038101906100c59190610682565b6101a5565b005b6100d461037f565b005b3480156100e257600080fd5b506100eb61056e565b6040516100f8919061070e565b60405180910390f35b60015481565b60008054906101000a900473ffffffffffffffffffffffffffffffffffffffff1673ffffffffffffffffffffffffffffffffffffffff166370a08231826040518263ffffffff1660e01b81526004016101609190610738565b602060405180830381865afa15801561017d573d6000803e3d6000fd5b505050506040513d601f19601f820116820180604052508101906101a19190610768565b5050565b6000600154826101b591906107f3565b905060008054906101000a900473ffffffffffffffffffffffffffffffffffffffff1673ffffffffffffffffffffffffffffffffffffffff1663095ea7b333846040518363ffffffff1660e01b8152600401610212929190610824565b6020604051808303816000875af1158015610231573d6000803e3d6000fd5b505050506040513d601f19601f820116820180604052508101906102559190610885565b5060008054906101000a900473ffffffffffffffffffffffffffffffffffffffff1673ffffffffffffffffffffffffffffffffffffffff166323b872dd3330856040518463ffffffff1660e01b81526004016102b3939291906108d3565b6020604051808303816000875af11580156102d2573d6000803e3d6000fd5b505050506040513d601f19601f820116820180604052508101906102f69190610885565b503373ffffffffffffffffffffffffffffffffffffffff166108fc829081150290604051600060405180830381858888f1935050505015801561033d573d6000803e3d6000fd5b507fa8a7473f10e62cf9687e243de1c3ac8b3cbc3dd04b96826beb3a65b59538581433308484604051610373949392919061090a565b60405180910390a15050565b60006001543461038f919061094f565b90508060008054906101000a900473ffffffffffffffffffffffffffffffffffffffff1673ffffffffffffffffffffffffffffffffffffffff166370a08231306040518263ffffffff1660e01b81526004016103eb9190610738565b602060405180830381865afa158015610408573d6000803e3d6000fd5b505050506040513d601f19601f8201168201806040525081019061042c9190610768565b101561046d576040517f08c379a0000000000000000000000000000000000000000000000000000000008152600401610464906109ee565b60405180910390fd5b7f8daf503382665d950e449b86172be5222275c90f4ddf69c29fdaa8237a562a6d3360008054906101000a900473ffffffffffffffffffffffffffffffffffffffff16836001546040516104c4949392919061090a565b60405180910390a160008054906101000a900473ffffffffffffffffffffffffffffffffffffffff1673ffffffffffffffffffffffffffffffffffffffff1663a9059cbb33836040518363ffffffff1660e01b8152600401610527929190610824565b6020604051808303816000875af1158015610546573d6000803e3d6000fd5b505050506040513d601f19601f8201168201806040525081019061056a9190610885565b5050565b60008054906101000a900473ffffffffffffffffffffffffffffffffffffffff1681565b6000819050919050565b6105a581610592565b82525050565b60006020820190506105c0600083018461059c565b92915050565b600080fd5b600073ffffffffffffffffffffffffffffffffffffffff82169050919050565b60006105f6826105cb565b9050919050565b610606816105eb565b811461061157600080fd5b50565b600081359050610623816105fd565b92915050565b60006020828403121561063f5761063e6105c6565b5b600061064d84828501610614565b91505092915050565b61065f81610592565b811461066a57600080fd5b50565b60008135905061067c81610656565b92915050565b600060208284031215610698576106976105c6565b5b60006106a68482850161066d565b91505092915050565b6000819050919050565b60006106d46106cf6106ca846105cb565b6106af565b6105cb565b9050919050565b60006106e6826106b9565b9050919050565b60006106f8826106db565b9050919050565b610708816106ed565b82525050565b600060208201905061072360008301846106ff565b92915050565b610732816105eb565b82525050565b600060208201905061074d6000830184610729565b92915050565b60008151905061076281610656565b92915050565b60006020828403121561077e5761077d6105c6565b5b600061078c84828501610753565b91505092915050565b7f4e487b7100000000000000000000000000000000000000000000000000000000600052601260045260246000fd5b7f4e487b7100000000000000000000000000000000000000000000000000000000600052601160045260246000fd5b60006107fe82610592565b915061080983610592565b92508261081957610818610795565b5b828204905092915050565b60006040820190506108396000830185610729565b610846602083018461059c565b9392505050565b60008115159050919050565b6108628161084d565b811461086d57600080fd5b50565b60008151905061087f81610859565b92915050565b60006020828403121561089b5761089a6105c6565b5b60006108a984828501610870565b91505092915050565b60006108bd826106db565b9050919050565b6108cd816108b2565b82525050565b60006060820190506108e86000830186610729565b6108f560208301856108c4565b610902604083018461059c565b949350505050565b600060808201905061091f6000830187610729565b61092c6020830186610729565b610939604083018561059c565b610946606083018461059c565b95945050505050565b600061095a82610592565b915061096583610592565b925082820261097381610592565b9150828204841483151761098a576109896107c4565b5b5092915050565b600082825260208201905092915050565b7f496e73756666696369656e742073656e642062616c616e636500000000000000600082015250565b60006109d8601983610991565b91506109e3826109a2565b602082019050919050565b60006020820190508181036000830152610a07816109cb565b905091905056fea2646970667358221220cfdc6f77e9072dfa6e15cc1e4d61b4ca9d35edab61be486c0373b87f80a132fe64736f6c63430008110033",
  "immutableReferences": {},
  "source": "// SPDX-License-Identifier: MIT\r\n\r\npragma solidity >=0.4.22 <0.9.0;\r\n\r\nimport \"./Gelatoken.sol\";\r\n\r\n//import \"@openzeppelin/contracts/token/ERC20/ERC20.sol\";\r\n\r\ncontract GelatoSwap {\r\n    //creating a new token variable\r\n    Gelatoken public gelaToken;\r\n    // Gelatoken public GelaToken;\r\n    //Gelatoken public gelaToken;\r\n\r\n    uint public rate = 100;\r\n\r\n    event TokenPurchased(\r\n        address account,\r\n        address token,\r\n        uint amount,\r\n        uint rate\r\n    );\r\n\r\n    event TokenSold(\r\n        address sender,\r\n        address recipient,\r\n        uint amountBought,\r\n        uint amountSent\r\n    );\r\n\r\n    // constructor(Gelatoken _gelaToken){\r\n    constructor(Gelatoken _gelaToken) {\r\n        //GelaToken = _gelaToken;\r\n        gelaToken = _gelaToken;\r\n    }\r\n\r\n    function buyTokens() public payable {\r\n        uint256 amountToSend = msg.value * rate;\r\n        require(\r\n            gelaToken.balanceOf(address(this)) >= amountToSend,\r\n            \"Insufficient send balance\"\r\n        );\r\n\r\n        emit TokenPurchased(\r\n            address(msg.sender),\r\n            address(gelaToken),\r\n            amountToSend,\r\n            rate\r\n        );\r\n        gelaToken.transfer(msg.sender, amountToSend);\r\n    }\r\n\r\n    function checkBalance(address account) public view {\r\n        // return GelaToken.balanceOf(account);\r\n        gelaToken.balanceOf(account);\r\n    }\r\n\r\n    function sellTokens(uint _amount) public{\r\n        //transferring ether to the customer when they pay in $GET\r\n        uint etherAmountToSend = _amount / rate;\r\n        gelaToken.approve(msg.sender, _amount);\r\n        gelaToken.transferFrom(\r\n            address(msg.sender),\r\n            payable(address(this)),\r\n            _amount\r\n        );\r\n        payable(msg.sender).transfer(etherAmountToSend);\r\n        emit TokenSold(\r\n            address(msg.sender),\r\n            address(this),\r\n            uint(_amount),\r\n            uint(etherAmountToSend)\r\n        );\r\n    }\r\n}\r\n\r\n//NOTES:\r\n//The difference between transefer() and transferFrom()\r\n\r\n//transfer(address, amount) takes out of the account of the \"address\" argument and pays the contract the specified amount\r\n\r\n//transferFrom(address from, address to, amount) takes from \"from\", and pays \"to\" for the amount\r\n",
  "sourcePath": "C:\\Users\\Admin\\Desktop\\gelatoswap\\server\\contracts\\GelatoSwap.sol",
  "compiler": {
    "name": "solc",
    "version": "0.8.17+commit.8df45f5f.Emscripten.clang"
  },
  "schemaVersion": "3.4.10",
  "updatedAt": "2022-10-27T22:02:43.870Z",
  "devdoc": {
    "kind": "dev",
    "methods": {},
    "version": 1
  },
  "userdoc": {
    "kind": "user",
    "methods": {},
    "version": 1
  }
}