{
  "contractName": "GelatoSwap",
  "abi": [
    {
      "inputs": [
        {
          "internalType": "contract Gelatoken",
          "name": "_gelaToken",
          "type": "address"
        }
      ],
      "stateMutability": "nonpayable",
      "type": "constructor"
    },
    {
      "anonymous": false,
      "inputs": [
        {
          "indexed": false,
          "internalType": "address",
          "name": "account",
          "type": "address"
        },
        {
          "indexed": false,
          "internalType": "address",
          "name": "token",
          "type": "address"
        },
        {
          "indexed": false,
          "internalType": "uint256",
          "name": "amount",
          "type": "uint256"
        },
        {
          "indexed": false,
          "internalType": "uint256",
          "name": "rate",
          "type": "uint256"
        }
      ],
      "name": "TokenPurchased",
      "type": "event"
    },
    {
      "anonymous": false,
      "inputs": [
        {
          "indexed": false,
          "internalType": "address",
          "name": "sender",
          "type": "address"
        },
        {
          "indexed": false,
          "internalType": "address",
          "name": "recipient",
          "type": "address"
        },
        {
          "indexed": false,
          "internalType": "uint256",
          "name": "amountBought",
          "type": "uint256"
        },
        {
          "indexed": false,
          "internalType": "uint256",
          "name": "amountSent",
          "type": "uint256"
        }
      ],
      "name": "TokenSold",
      "type": "event"
    },
    {
      "inputs": [],
      "name": "gelaToken",
      "outputs": [
        {
          "internalType": "contract Gelatoken",
          "name": "",
          "type": "address"
        }
      ],
      "stateMutability": "view",
      "type": "function"
    },
    {
      "inputs": [],
      "name": "rate",
      "outputs": [
        {
          "internalType": "uint256",
          "name": "",
          "type": "uint256"
        }
      ],
      "stateMutability": "view",
      "type": "function"
    },
    {
      "inputs": [],
      "name": "buyTokens",
      "outputs": [],
      "stateMutability": "payable",
      "type": "function"
    },
    {
      "inputs": [
        {
          "internalType": "address",
          "name": "account",
          "type": "address"
        }
      ],
      "name": "checkBalance",
      "outputs": [],
      "stateMutability": "view",
      "type": "function"
    },
    {
      "inputs": [
        {
          "internalType": "uint256",
          "name": "_amount",
          "type": "uint256"
        }
      ],
      "name": "sellTokens",
      "outputs": [],
      "stateMutability": "nonpayable",
      "type": "function"
    }
  ],
  "bytecode": "0x6080604052606460015534801561001557600080fd5b50604051610ab2380380610ab2833981810160405281019061003791906100f2565b806000806101000a81548173ffffffffffffffffffffffffffffffffffffffff021916908373ffffffffffffffffffffffffffffffffffffffff1602179055505061011f565b600080fd5b600073ffffffffffffffffffffffffffffffffffffffff82169050919050565b60006100ad82610082565b9050919050565b60006100bf826100a2565b9050919050565b6100cf816100b4565b81146100da57600080fd5b50565b6000815190506100ec816100c6565b92915050565b6000602082840312156101085761010761007d565b5b6000610116848285016100dd565b91505092915050565b6109848061012e6000396000f3fe60806040526004361061004a5760003560e01c80632c4e722e1461004f5780635f5152261461007a5780636c11bcd3146100a3578063d0febe4c146100cc578063e9a91cb5146100d6575b600080fd5b34801561005b57600080fd5b50610064610101565b604051610071919061050c565b60405180910390f35b34801561008657600080fd5b506100a1600480360381019061009c919061058a565b610107565b005b3480156100af57600080fd5b506100ca60048036038101906100c591906105e3565b6101a5565b005b6100d46102e0565b005b3480156100e257600080fd5b506100eb6104cf565b6040516100f8919061066f565b60405180910390f35b60015481565b60008054906101000a900473ffffffffffffffffffffffffffffffffffffffff1673ffffffffffffffffffffffffffffffffffffffff166370a08231826040518263ffffffff1660e01b81526004016101609190610699565b602060405180830381865afa15801561017d573d6000803e3d6000fd5b505050506040513d601f19601f820116820180604052508101906101a191906106c9565b5050565b6000600154826101b59190610754565b905060008054906101000a900473ffffffffffffffffffffffffffffffffffffffff1673ffffffffffffffffffffffffffffffffffffffff166323b872dd3330856040518463ffffffff1660e01b815260040161021493929190610785565b6020604051808303816000875af1158015610233573d6000803e3d6000fd5b505050506040513d601f19601f8201168201806040525081019061025791906107f4565b503373ffffffffffffffffffffffffffffffffffffffff166108fc829081150290604051600060405180830381858888f1935050505015801561029e573d6000803e3d6000fd5b507fa8a7473f10e62cf9687e243de1c3ac8b3cbc3dd04b96826beb3a65b595385814333084846040516102d49493929190610821565b60405180910390a15050565b6000600154346102f09190610866565b90508060008054906101000a900473ffffffffffffffffffffffffffffffffffffffff1673ffffffffffffffffffffffffffffffffffffffff166370a08231306040518263ffffffff1660e01b815260040161034c9190610699565b602060405180830381865afa158015610369573d6000803e3d6000fd5b505050506040513d601f19601f8201168201806040525081019061038d91906106c9565b10156103ce576040517f08c379a00000000000000000000000000000000000000000000000000000000081526004016103c590610905565b60405180910390fd5b7f8daf503382665d950e449b86172be5222275c90f4ddf69c29fdaa8237a562a6d3360008054906101000a900473ffffffffffffffffffffffffffffffffffffffff16836001546040516104259493929190610821565b60405180910390a160008054906101000a900473ffffffffffffffffffffffffffffffffffffffff1673ffffffffffffffffffffffffffffffffffffffff1663a9059cbb33836040518363ffffffff1660e01b8152600401610488929190610925565b6020604051808303816000875af11580156104a7573d6000803e3d6000fd5b505050506040513d601f19601f820116820180604052508101906104cb91906107f4565b5050565b60008054906101000a900473ffffffffffffffffffffffffffffffffffffffff1681565b6000819050919050565b610506816104f3565b82525050565b600060208201905061052160008301846104fd565b92915050565b600080fd5b600073ffffffffffffffffffffffffffffffffffffffff82169050919050565b60006105578261052c565b9050919050565b6105678161054c565b811461057257600080fd5b50565b6000813590506105848161055e565b92915050565b6000602082840312156105a05761059f610527565b5b60006105ae84828501610575565b91505092915050565b6105c0816104f3565b81146105cb57600080fd5b50565b6000813590506105dd816105b7565b92915050565b6000602082840312156105f9576105f8610527565b5b6000610607848285016105ce565b91505092915050565b6000819050919050565b600061063561063061062b8461052c565b610610565b61052c565b9050919050565b60006106478261061a565b9050919050565b60006106598261063c565b9050919050565b6106698161064e565b82525050565b60006020820190506106846000830184610660565b92915050565b6106938161054c565b82525050565b60006020820190506106ae600083018461068a565b92915050565b6000815190506106c3816105b7565b92915050565b6000602082840312156106df576106de610527565b5b60006106ed848285016106b4565b91505092915050565b7f4e487b7100000000000000000000000000000000000000000000000000000000600052601260045260246000fd5b7f4e487b7100000000000000000000000000000000000000000000000000000000600052601160045260246000fd5b600061075f826104f3565b915061076a836104f3565b92508261077a576107796106f6565b5b828204905092915050565b600060608201905061079a600083018661068a565b6107a7602083018561068a565b6107b460408301846104fd565b949350505050565b60008115159050919050565b6107d1816107bc565b81146107dc57600080fd5b50565b6000815190506107ee816107c8565b92915050565b60006020828403121561080a57610809610527565b5b6000610818848285016107df565b91505092915050565b6000608082019050610836600083018761068a565b610843602083018661068a565b61085060408301856104fd565b61085d60608301846104fd565b95945050505050565b6000610871826104f3565b915061087c836104f3565b925082820261088a816104f3565b915082820484148315176108a1576108a0610725565b5b5092915050565b600082825260208201905092915050565b7f496e73756666696369656e742073656e642062616c616e636500000000000000600082015250565b60006108ef6019836108a8565b91506108fa826108b9565b602082019050919050565b6000602082019050818103600083015261091e816108e2565b9050919050565b600060408201905061093a600083018561068a565b61094760208301846104fd565b939250505056fea26469706673582212202e18c0597d1576ce57588a26ed3a22d21a8f3ab7b131bb25fc89e5c21433af8f64736f6c63430008110033",
  "immutableReferences": {},
  "source": "// SPDX-License-Identifier: MIT\r\n\r\npragma solidity >=0.4.22 <0.9.0;\r\n\r\nimport \"./Gelatoken.sol\";\r\n\r\n//import \"@openzeppelin/contracts/token/ERC20/ERC20.sol\";\r\n\r\ncontract GelatoSwap {\r\n    //creating a new token variable\r\n    Gelatoken public gelaToken;\r\n    // Gelatoken public GelaToken;\r\n    //Gelatoken public gelaToken;\r\n\r\n    uint public rate = 100;\r\n\r\n    event TokenPurchased(\r\n        address account,\r\n        address token,\r\n        uint amount,\r\n        uint rate\r\n    );\r\n\r\n    event TokenSold(\r\n        address sender,\r\n        address recipient,\r\n        uint amountBought,\r\n        uint amountSent\r\n    );\r\n\r\n    // constructor(Gelatoken _gelaToken){\r\n    constructor(Gelatoken _gelaToken) {\r\n        //GelaToken = _gelaToken;\r\n        gelaToken = _gelaToken;\r\n    }\r\n\r\n    function buyTokens() public payable {\r\n        uint256 amountToSend = msg.value * rate;\r\n        require(\r\n            gelaToken.balanceOf(address(this)) >= amountToSend,\r\n            \"Insufficient send balance\"\r\n        );\r\n\r\n        emit TokenPurchased(\r\n            address(msg.sender),\r\n            address(gelaToken),\r\n            amountToSend,\r\n            rate\r\n        );\r\n        gelaToken.transfer(msg.sender, amountToSend);\r\n    }\r\n\r\n    function checkBalance(address account) public view {\r\n        // return GelaToken.balanceOf(account);\r\n        gelaToken.balanceOf(account);\r\n    }\r\n\r\n    function sellTokens(uint _amount) public{\r\n        //transferring ether to the customer when they pay in $GET\r\n        uint etherAmountToSend = _amount / rate;\r\n\r\n        gelaToken.transferFrom(\r\n            address(msg.sender),\r\n            address(this),\r\n            _amount\r\n        );\r\n        payable(msg.sender).transfer(etherAmountToSend);\r\n        emit TokenSold(\r\n            address(msg.sender),\r\n            address(this),\r\n            uint(_amount),\r\n            uint(etherAmountToSend)\r\n        );\r\n    }\r\n}\r\n\r\n//NOTES:\r\n//The difference between transefer() and transferFrom()\r\n\r\n//transfer(address, amount) takes out of the account of the \"address\" argument and pays the contract the specified amount\r\n\r\n//transferFrom(address from, address to, amount) takes from \"from\", and pays \"to\" for the amount\r\n",
  "sourcePath": "C:\\Users\\Admin\\Desktop\\gelatoswap\\server\\contracts\\GelatoSwap.sol",
  "compiler": {
    "name": "solc",
    "version": "0.8.17+commit.8df45f5f.Emscripten.clang"
  },
  "schemaVersion": "3.4.10",
  "updatedAt": "2022-10-25T21:41:43.764Z",
  "devdoc": {
    "kind": "dev",
    "methods": {},
    "version": 1
  },
  "userdoc": {
    "kind": "user",
    "methods": {},
    "version": 1
  }
}