{
  "contractName": "GelatoSwap",
  "abi": [
    {
      "inputs": [
        {
          "internalType": "contract Gelatoken",
          "name": "_gelaToken",
          "type": "address"
        }
      ],
      "stateMutability": "nonpayable",
      "type": "constructor"
    },
    {
      "anonymous": false,
      "inputs": [
        {
          "indexed": false,
          "internalType": "address",
          "name": "account",
          "type": "address"
        },
        {
          "indexed": false,
          "internalType": "address",
          "name": "token",
          "type": "address"
        },
        {
          "indexed": false,
          "internalType": "uint256",
          "name": "amount",
          "type": "uint256"
        },
        {
          "indexed": false,
          "internalType": "uint256",
          "name": "rate",
          "type": "uint256"
        }
      ],
      "name": "TokenPurchased",
      "type": "event"
    },
    {
      "inputs": [],
      "name": "GelaToken",
      "outputs": [
        {
          "internalType": "contract Gelatoken",
          "name": "",
          "type": "address"
        }
      ],
      "stateMutability": "view",
      "type": "function"
    },
    {
      "inputs": [],
      "name": "rate",
      "outputs": [
        {
          "internalType": "uint256",
          "name": "",
          "type": "uint256"
        }
      ],
      "stateMutability": "view",
      "type": "function"
    },
    {
      "inputs": [],
      "name": "buyTokens",
      "outputs": [
        {
          "internalType": "bool",
          "name": "",
          "type": "bool"
        }
      ],
      "stateMutability": "payable",
      "type": "function"
    },
    {
      "inputs": [
        {
          "internalType": "address",
          "name": "account",
          "type": "address"
        }
      ],
      "name": "checkBalance",
      "outputs": [
        {
          "internalType": "uint256",
          "name": "",
          "type": "uint256"
        }
      ],
      "stateMutability": "view",
      "type": "function"
    },
    {
      "inputs": [
        {
          "internalType": "uint256",
          "name": "_amount",
          "type": "uint256"
        }
      ],
      "name": "sellTokens",
      "outputs": [],
      "stateMutability": "payable",
      "type": "function"
    }
  ],
  "bytecode": "0x6080604052606460015534801561001557600080fd5b50604051610a40380380610a40833981810160405281019061003791906100f2565b806000806101000a81548173ffffffffffffffffffffffffffffffffffffffff021916908373ffffffffffffffffffffffffffffffffffffffff1602179055505061011f565b600080fd5b600073ffffffffffffffffffffffffffffffffffffffff82169050919050565b60006100ad82610082565b9050919050565b60006100bf826100a2565b9050919050565b6100cf816100b4565b81146100da57600080fd5b50565b6000815190506100ec816100c6565b92915050565b6000602082840312156101085761010761007d565b5b6000610116848285016100dd565b91505092915050565b6109128061012e6000396000f3fe60806040526004361061004a5760003560e01c80632c4e722e1461004f5780635f5152261461007a5780636c11bcd3146100b757806382c99066146100d3578063d0febe4c146100fe575b600080fd5b34801561005b57600080fd5b5061006461011c565b6040516100719190610494565b60405180910390f35b34801561008657600080fd5b506100a1600480360381019061009c9190610512565b610122565b6040516100ae9190610494565b60405180910390f35b6100d160048036038101906100cc919061056b565b6101c6565b005b3480156100df57600080fd5b506100e86102c4565b6040516100f591906105f7565b60405180910390f35b6101066102e8565b604051610113919061062d565b60405180910390f35b60015481565b60008060009054906101000a900473ffffffffffffffffffffffffffffffffffffffff1673ffffffffffffffffffffffffffffffffffffffff166370a08231836040518263ffffffff1660e01b815260040161017e9190610657565b602060405180830381865afa15801561019b573d6000803e3d6000fd5b505050506040513d601f19601f820116820180604052508101906101bf9190610687565b9050919050565b60008054906101000a900473ffffffffffffffffffffffffffffffffffffffff1673ffffffffffffffffffffffffffffffffffffffff166323b872dd3330846040518463ffffffff1660e01b8152600401610223939291906106d5565b6020604051808303816000875af1158015610242573d6000803e3d6000fd5b505050506040513d601f19601f820116820180604052508101906102669190610738565b5060006001548261027791906107c3565b90503373ffffffffffffffffffffffffffffffffffffffff166108fc829081150290604051600060405180830381858888f193505050501580156102bf573d6000803e3d6000fd5b505050565b60008054906101000a900473ffffffffffffffffffffffffffffffffffffffff1681565b600080600154346102f991906107f4565b90508060008054906101000a900473ffffffffffffffffffffffffffffffffffffffff1673ffffffffffffffffffffffffffffffffffffffff166370a08231306040518263ffffffff1660e01b81526004016103559190610657565b602060405180830381865afa158015610372573d6000803e3d6000fd5b505050506040513d601f19601f820116820180604052508101906103969190610687565b10156103d7576040517f08c379a00000000000000000000000000000000000000000000000000000000081526004016103ce90610893565b60405180910390fd5b60008054906101000a900473ffffffffffffffffffffffffffffffffffffffff1673ffffffffffffffffffffffffffffffffffffffff1663a9059cbb33836040518363ffffffff1660e01b81526004016104329291906108b3565b6020604051808303816000875af1158015610451573d6000803e3d6000fd5b505050506040513d601f19601f820116820180604052508101906104759190610738565b91505090565b6000819050919050565b61048e8161047b565b82525050565b60006020820190506104a96000830184610485565b92915050565b600080fd5b600073ffffffffffffffffffffffffffffffffffffffff82169050919050565b60006104df826104b4565b9050919050565b6104ef816104d4565b81146104fa57600080fd5b50565b60008135905061050c816104e6565b92915050565b600060208284031215610528576105276104af565b5b6000610536848285016104fd565b91505092915050565b6105488161047b565b811461055357600080fd5b50565b6000813590506105658161053f565b92915050565b600060208284031215610581576105806104af565b5b600061058f84828501610556565b91505092915050565b6000819050919050565b60006105bd6105b86105b3846104b4565b610598565b6104b4565b9050919050565b60006105cf826105a2565b9050919050565b60006105e1826105c4565b9050919050565b6105f1816105d6565b82525050565b600060208201905061060c60008301846105e8565b92915050565b60008115159050919050565b61062781610612565b82525050565b6000602082019050610642600083018461061e565b92915050565b610651816104d4565b82525050565b600060208201905061066c6000830184610648565b92915050565b6000815190506106818161053f565b92915050565b60006020828403121561069d5761069c6104af565b5b60006106ab84828501610672565b91505092915050565b60006106bf826105c4565b9050919050565b6106cf816106b4565b82525050565b60006060820190506106ea60008301866106c6565b6106f760208301856106c6565b6107046040830184610485565b949350505050565b61071581610612565b811461072057600080fd5b50565b6000815190506107328161070c565b92915050565b60006020828403121561074e5761074d6104af565b5b600061075c84828501610723565b91505092915050565b7f4e487b7100000000000000000000000000000000000000000000000000000000600052601260045260246000fd5b7f4e487b7100000000000000000000000000000000000000000000000000000000600052601160045260246000fd5b60006107ce8261047b565b91506107d98361047b565b9250826107e9576107e8610765565b5b828204905092915050565b60006107ff8261047b565b915061080a8361047b565b92508282026108188161047b565b9150828204841483151761082f5761082e610794565b5b5092915050565b600082825260208201905092915050565b7f496e73756666696369656e742073656e642062616c616e636500000000000000600082015250565b600061087d601983610836565b915061088882610847565b602082019050919050565b600060208201905081810360008301526108ac81610870565b9050919050565b60006040820190506108c86000830185610648565b6108d56020830184610485565b939250505056fea2646970667358221220f989185bc2f07da48c7e9e65fe82bdbb6114b12902503be6dba34254d97dd11464736f6c63430008110033",
  "immutableReferences": {},
  "source": "// SPDX-License-Identifier: MIT\r\n\r\npragma solidity >=0.4.22 <0.9.0;\r\n\r\nimport './Gelatoken.sol';\r\n\r\ncontract GelatoSwap{\r\n   \r\n   //creating a new token variable\r\n    Gelatoken public GelaToken;\r\n    uint public rate = 100;\r\n\r\n    event TokenPurchased(\r\n        address account,\r\n        address token,\r\n        uint amount,\r\n        uint rate\r\n    );\r\n\r\n    constructor(Gelatoken _gelaToken){\r\n        GelaToken = _gelaToken;\r\n    }\r\n\r\n    function buyTokens() public payable returns(bool){\r\n        uint256 amountToSend = msg.value * rate;\r\n        // emit TokenPurchased(\r\n        //     address(msg.sender),\r\n        //     address(GelaToken),\r\n        //     amountToSend,\r\n        //     rate\r\n        // );\r\n        require(GelaToken.balanceOf(address(this)) >= amountToSend, \"Insufficient send balance\");\r\n        return GelaToken.transfer(msg.sender, amountToSend);\r\n    }\r\n\r\n\r\n    function checkBalance(address account) public view returns(uint256){\r\n        return GelaToken.balanceOf(account);\r\n    }\r\n\r\n    function sellTokens(uint _amount) public payable {\r\n        //recieving $GET from the customer \r\n        GelaToken.transferFrom(payable(address(msg.sender)), payable(address(this)), _amount);\r\n\r\n        //transferring ether to the customer when they pay in $GET\r\n        uint etherAmountToSend = _amount / rate;\r\n        payable(msg.sender).transfer(etherAmountToSend);\r\n    }\r\n\r\n}\r\n\r\n//NOTES:\r\n//The difference between transefer() and transferFrom()\r\n\r\n//transfer(address, amount) takes out of the account of the \"address\" argument and pays the contract the specified amount\r\n\r\n//transferFrom(address from, address to, amount) takes from \"from\", and pays \"to\" for the amount",
  "sourcePath": "C:\\Users\\Admin\\Desktop\\gelatoswap\\server\\contracts\\GelatoSwap.sol",
  "compiler": {
    "name": "solc",
    "version": "0.8.17+commit.8df45f5f.Emscripten.clang"
  },
  "schemaVersion": "3.4.10",
  "updatedAt": "2022-10-22T07:55:51.509Z",
  "devdoc": {
    "kind": "dev",
    "methods": {},
    "version": 1
  },
  "userdoc": {
    "kind": "user",
    "methods": {},
    "version": 1
  }
}