{
  "contractName": "GelatoSwap",
  "abi": [
    {
      "inputs": [
        {
          "internalType": "contract Gelatoken",
          "name": "_gelaToken",
          "type": "address"
        }
      ],
      "stateMutability": "nonpayable",
      "type": "constructor"
    },
    {
      "inputs": [],
      "name": "GelaToken",
      "outputs": [
        {
          "internalType": "contract Gelatoken",
          "name": "",
          "type": "address"
        }
      ],
      "stateMutability": "view",
      "type": "function"
    },
    {
      "inputs": [],
      "name": "rate",
      "outputs": [
        {
          "internalType": "uint256",
          "name": "",
          "type": "uint256"
        }
      ],
      "stateMutability": "view",
      "type": "function"
    },
    {
      "inputs": [
        {
          "internalType": "uint256",
          "name": "amount",
          "type": "uint256"
        }
      ],
      "name": "buyTokens",
      "outputs": [],
      "stateMutability": "payable",
      "type": "function"
    }
  ],
  "bytecode": "0x6080604052606460015534801561001557600080fd5b50604051610538380380610538833981810160405281019061003791906100f2565b806000806101000a81548173ffffffffffffffffffffffffffffffffffffffff021916908373ffffffffffffffffffffffffffffffffffffffff1602179055505061011f565b600080fd5b600073ffffffffffffffffffffffffffffffffffffffff82169050919050565b60006100ad82610082565b9050919050565b60006100bf826100a2565b9050919050565b6100cf816100b4565b81146100da57600080fd5b50565b6000815190506100ec816100c6565b92915050565b6000602082840312156101085761010761007d565b5b6000610116848285016100dd565b91505092915050565b61040a8061012e6000396000f3fe6080604052600436106100345760003560e01c80632c4e722e146100395780633610724e1461006457806382c9906614610080575b600080fd5b34801561004557600080fd5b5061004e6100ab565b60405161005b91906101a1565b60405180910390f35b61007e600480360381019061007991906101ed565b6100b1565b005b34801561008c57600080fd5b50610095610164565b6040516100a29190610299565b60405180910390f35b60015481565b600081346100bf91906102e3565b905060008054906101000a900473ffffffffffffffffffffffffffffffffffffffff1673ffffffffffffffffffffffffffffffffffffffff1663a9059cbb33836040518363ffffffff1660e01b815260040161011c929190610346565b6020604051808303816000875af115801561013b573d6000803e3d6000fd5b505050506040513d601f19601f8201168201806040525081019061015f91906103a7565b505050565b60008054906101000a900473ffffffffffffffffffffffffffffffffffffffff1681565b6000819050919050565b61019b81610188565b82525050565b60006020820190506101b66000830184610192565b92915050565b600080fd5b6101ca81610188565b81146101d557600080fd5b50565b6000813590506101e7816101c1565b92915050565b600060208284031215610203576102026101bc565b5b6000610211848285016101d8565b91505092915050565b600073ffffffffffffffffffffffffffffffffffffffff82169050919050565b6000819050919050565b600061025f61025a6102558461021a565b61023a565b61021a565b9050919050565b600061027182610244565b9050919050565b600061028382610266565b9050919050565b61029381610278565b82525050565b60006020820190506102ae600083018461028a565b92915050565b7f4e487b7100000000000000000000000000000000000000000000000000000000600052601160045260246000fd5b60006102ee82610188565b91506102f983610188565b925082820261030781610188565b9150828204841483151761031e5761031d6102b4565b5b5092915050565b60006103308261021a565b9050919050565b61034081610325565b82525050565b600060408201905061035b6000830185610337565b6103686020830184610192565b9392505050565b60008115159050919050565b6103848161036f565b811461038f57600080fd5b50565b6000815190506103a18161037b565b92915050565b6000602082840312156103bd576103bc6101bc565b5b60006103cb84828501610392565b9150509291505056fea2646970667358221220f9c0b61a5afd75ab1482a343f782ff73d26c91e66c5276e3f633b498659b319564736f6c63430008110033",
  "immutableReferences": {},
  "source": "// SPDX-License-Identifier: MIT\r\n\r\npragma solidity >=0.4.22 <0.9.0;\r\n\r\nimport './Gelatoken.sol';\r\n\r\ncontract GelatoSwap{\r\n   \r\n   //creating a new token variable\r\n    Gelatoken public GelaToken;\r\n    uint public rate = 100;\r\n\r\n    constructor(Gelatoken _gelaToken){\r\n        GelaToken = _gelaToken;\r\n    }\r\n\r\n    function buyTokens(uint256 amount) public payable {\r\n        uint amountToSend = msg.value * amount;\r\n        GelaToken.transfer(msg.sender, amountToSend);\r\n    }\r\n}",
  "sourcePath": "C:\\Users\\Admin\\Desktop\\gelatoswap\\server\\contracts\\GelatoSwap.sol",
  "compiler": {
    "name": "solc",
    "version": "0.8.17+commit.8df45f5f.Emscripten.clang"
  },
  "schemaVersion": "3.4.10",
  "updatedAt": "2022-10-18T20:21:46.340Z",
  "devdoc": {
    "kind": "dev",
    "methods": {},
    "version": 1
  },
  "userdoc": {
    "kind": "user",
    "methods": {},
    "version": 1
  }
}