{
  "contractName": "GelatoSwap",
  "abi": [
    {
      "inputs": [
        {
          "internalType": "contract Gelatoken",
          "name": "_gelaToken",
          "type": "address"
        }
      ],
      "stateMutability": "nonpayable",
      "type": "constructor"
    },
    {
      "inputs": [],
      "name": "GelaToken",
      "outputs": [
        {
          "internalType": "contract Gelatoken",
          "name": "",
          "type": "address"
        }
      ],
      "stateMutability": "view",
      "type": "function"
    }
  ],
  "bytecode": "0x608060405234801561001057600080fd5b50604051610256380380610256833981810160405281019061003291906100ed565b806000806101000a81548173ffffffffffffffffffffffffffffffffffffffff021916908373ffffffffffffffffffffffffffffffffffffffff1602179055505061011a565b600080fd5b600073ffffffffffffffffffffffffffffffffffffffff82169050919050565b60006100a88261007d565b9050919050565b60006100ba8261009d565b9050919050565b6100ca816100af565b81146100d557600080fd5b50565b6000815190506100e7816100c1565b92915050565b60006020828403121561010357610102610078565b5b6000610111848285016100d8565b91505092915050565b61012d806101296000396000f3fe6080604052348015600f57600080fd5b506004361060285760003560e01c806382c9906614602d575b600080fd5b60336047565b604051603e919060de565b60405180910390f35b60008054906101000a900473ffffffffffffffffffffffffffffffffffffffff1681565b600073ffffffffffffffffffffffffffffffffffffffff82169050919050565b6000819050919050565b600060aa60a660a284606b565b608b565b606b565b9050919050565b600060ba826095565b9050919050565b600060ca8260b1565b9050919050565b60d88160c1565b82525050565b600060208201905060f1600083018460d1565b9291505056fea2646970667358221220393f01efefcf53e59f8dabffe8f11b9e6d27a022f4d944a12fd88bf205510b9964736f6c63430008110033",
  "immutableReferences": {},
  "source": "// SPDX-License-Identifier: MIT\r\n\r\npragma solidity >=0.4.22 <0.9.0;\r\n\r\nimport './Gelatoken.sol';\r\n\r\ncontract GelatoSwap{\r\n   \r\n   //creatig a new token variable\r\n    Gelatoken public GelaToken;\r\n\r\n    constructor(Gelatoken _gelaToken){\r\n        GelaToken = _gelaToken;\r\n    }\r\n}",
  "sourcePath": "C:\\Users\\Admin\\Desktop\\gelatoswap\\server\\contracts\\GelatoSwap.sol",
  "compiler": {
    "name": "solc",
    "version": "0.8.17+commit.8df45f5f.Emscripten.clang"
  },
  "schemaVersion": "3.4.10",
  "updatedAt": "2022-10-16T22:52:41.942Z",
  "devdoc": {
    "kind": "dev",
    "methods": {},
    "version": 1
  },
  "userdoc": {
    "kind": "user",
    "methods": {},
    "version": 1
  }
}