{
  "contractName": "GelatoSwap",
  "abi": [
    {
      "inputs": [
        {
          "internalType": "contract Gelatoken",
          "name": "_gelaToken",
          "type": "address"
        }
      ],
      "stateMutability": "nonpayable",
      "type": "constructor"
    },
    {
      "inputs": [],
      "name": "GelaToken",
      "outputs": [
        {
          "internalType": "contract Gelatoken",
          "name": "",
          "type": "address"
        }
      ],
      "stateMutability": "view",
      "type": "function"
    },
    {
      "inputs": [],
      "name": "rate",
      "outputs": [
        {
          "internalType": "uint256",
          "name": "",
          "type": "uint256"
        }
      ],
      "stateMutability": "view",
      "type": "function"
    },
    {
      "inputs": [],
      "name": "buyTokens",
      "outputs": [
        {
          "internalType": "bool",
          "name": "",
          "type": "bool"
        }
      ],
      "stateMutability": "payable",
      "type": "function"
    },
    {
      "inputs": [
        {
          "internalType": "address",
          "name": "account",
          "type": "address"
        }
      ],
      "name": "checkBalance",
      "outputs": [
        {
          "internalType": "uint256",
          "name": "",
          "type": "uint256"
        }
      ],
      "stateMutability": "view",
      "type": "function"
    }
  ],
  "bytecode": "0x6080604052606460015534801561001557600080fd5b506040516106c83803806106c8833981810160405281019061003791906100f2565b806000806101000a81548173ffffffffffffffffffffffffffffffffffffffff021916908373ffffffffffffffffffffffffffffffffffffffff1602179055505061011f565b600080fd5b600073ffffffffffffffffffffffffffffffffffffffff82169050919050565b60006100ad82610082565b9050919050565b60006100bf826100a2565b9050919050565b6100cf816100b4565b81146100da57600080fd5b50565b6000815190506100ec816100c6565b92915050565b6000602082840312156101085761010761007d565b5b6000610116848285016100dd565b91505092915050565b61059a8061012e6000396000f3fe60806040526004361061003f5760003560e01c80632c4e722e146100445780635f5152261461006f57806382c99066146100ac578063d0febe4c146100d7575b600080fd5b34801561005057600080fd5b506100596100f5565b6040516100669190610293565b60405180910390f35b34801561007b57600080fd5b5061009660048036038101906100919190610311565b6100fb565b6040516100a39190610293565b60405180910390f35b3480156100b857600080fd5b506100c161019f565b6040516100ce919061039d565b60405180910390f35b6100df6101c3565b6040516100ec91906103d3565b60405180910390f35b60015481565b60008060009054906101000a900473ffffffffffffffffffffffffffffffffffffffff1673ffffffffffffffffffffffffffffffffffffffff166370a08231836040518263ffffffff1660e01b815260040161015791906103fd565b602060405180830381865afa158015610174573d6000803e3d6000fd5b505050506040513d601f19601f820116820180604052508101906101989190610444565b9050919050565b60008054906101000a900473ffffffffffffffffffffffffffffffffffffffff1681565b600080346001546101d491906104a0565b905060008054906101000a900473ffffffffffffffffffffffffffffffffffffffff1673ffffffffffffffffffffffffffffffffffffffff1663a9059cbb33836040518363ffffffff1660e01b81526004016102319291906104e2565b6020604051808303816000875af1158015610250573d6000803e3d6000fd5b505050506040513d601f19601f820116820180604052508101906102749190610537565b91505090565b6000819050919050565b61028d8161027a565b82525050565b60006020820190506102a86000830184610284565b92915050565b600080fd5b600073ffffffffffffffffffffffffffffffffffffffff82169050919050565b60006102de826102b3565b9050919050565b6102ee816102d3565b81146102f957600080fd5b50565b60008135905061030b816102e5565b92915050565b600060208284031215610327576103266102ae565b5b6000610335848285016102fc565b91505092915050565b6000819050919050565b600061036361035e610359846102b3565b61033e565b6102b3565b9050919050565b600061037582610348565b9050919050565b60006103878261036a565b9050919050565b6103978161037c565b82525050565b60006020820190506103b2600083018461038e565b92915050565b60008115159050919050565b6103cd816103b8565b82525050565b60006020820190506103e860008301846103c4565b92915050565b6103f7816102d3565b82525050565b600060208201905061041260008301846103ee565b92915050565b6104218161027a565b811461042c57600080fd5b50565b60008151905061043e81610418565b92915050565b60006020828403121561045a576104596102ae565b5b60006104688482850161042f565b91505092915050565b7f4e487b7100000000000000000000000000000000000000000000000000000000600052601160045260246000fd5b60006104ab8261027a565b91506104b68361027a565b92508282026104c48161027a565b915082820484148315176104db576104da610471565b5b5092915050565b60006040820190506104f760008301856103ee565b6105046020830184610284565b9392505050565b610514816103b8565b811461051f57600080fd5b50565b6000815190506105318161050b565b92915050565b60006020828403121561054d5761054c6102ae565b5b600061055b84828501610522565b9150509291505056fea2646970667358221220d8cceb49a4da4ebac5e02a080826a415abee0378be09f380863e6cae80d7706b64736f6c63430008110033",
  "immutableReferences": {},
  "source": "// SPDX-License-Identifier: MIT\r\n\r\npragma solidity >=0.4.22 <0.9.0;\r\n\r\nimport './Gelatoken.sol';\r\n\r\ncontract GelatoSwap{\r\n   \r\n   //creating a new token variable\r\n    Gelatoken public GelaToken;\r\n    uint public rate = 100;\r\n\r\n    constructor(Gelatoken _gelaToken){\r\n        GelaToken = _gelaToken;\r\n    }\r\n\r\n    function buyTokens() public payable returns(bool){\r\n        uint amountToSend = rate * msg.value;\r\n        return GelaToken.transfer(msg.sender, amountToSend);\r\n    }\r\n\r\n    // function buyTokens() public payable{\r\n    //     uint amountToSend = rate * msg.value;\r\n    //     GelaToken.transferToBuyer(msg.sender, amountToSend);\r\n    // }\r\n\r\n    function checkBalance(address account) public view returns(uint256){\r\n        return GelaToken.balanceOf(account);\r\n    }\r\n\r\n    \r\n}",
  "sourcePath": "C:\\Users\\Admin\\Desktop\\gelatoswap\\server\\contracts\\GelatoSwap.sol",
  "compiler": {
    "name": "solc",
    "version": "0.8.17+commit.8df45f5f.Emscripten.clang"
  },
  "schemaVersion": "3.4.10",
  "updatedAt": "2022-10-20T22:45:59.692Z",
  "devdoc": {
    "kind": "dev",
    "methods": {},
    "version": 1
  },
  "userdoc": {
    "kind": "user",
    "methods": {},
    "version": 1
  }
}