{
  "contractName": "GelatoSwap",
  "abi": [
    {
      "inputs": [
        {
          "internalType": "contract Gelatoken",
          "name": "_gelaToken",
          "type": "address"
        }
      ],
      "stateMutability": "nonpayable",
      "type": "constructor"
    },
    {
      "inputs": [],
      "name": "GelaToken",
      "outputs": [
        {
          "internalType": "contract Gelatoken",
          "name": "",
          "type": "address"
        }
      ],
      "stateMutability": "view",
      "type": "function"
    },
    {
      "inputs": [],
      "name": "rate",
      "outputs": [
        {
          "internalType": "uint256",
          "name": "",
          "type": "uint256"
        }
      ],
      "stateMutability": "view",
      "type": "function"
    },
    {
      "inputs": [],
      "name": "buyTokens",
      "outputs": [],
      "stateMutability": "payable",
      "type": "function"
    },
    {
      "inputs": [
        {
          "internalType": "address",
          "name": "account",
          "type": "address"
        }
      ],
      "name": "checkBalance",
      "outputs": [],
      "stateMutability": "nonpayable",
      "type": "function"
    }
  ],
  "bytecode": "0x6080604052606460015534801561001557600080fd5b5060405161066d38038061066d833981810160405281019061003791906100f2565b806000806101000a81548173ffffffffffffffffffffffffffffffffffffffff021916908373ffffffffffffffffffffffffffffffffffffffff1602179055505061011f565b600080fd5b600073ffffffffffffffffffffffffffffffffffffffff82169050919050565b60006100ad82610082565b9050919050565b60006100bf826100a2565b9050919050565b6100cf816100b4565b81146100da57600080fd5b50565b6000815190506100ec816100c6565b92915050565b6000602082840312156101085761010761007d565b5b6000610116848285016100dd565b91505092915050565b61053f8061012e6000396000f3fe60806040526004361061003f5760003560e01c80632c4e722e146100445780635f5152261461006f57806382c9906614610098578063d0febe4c146100c3575b600080fd5b34801561005057600080fd5b506100596100cd565b6040516100669190610262565b60405180910390f35b34801561007b57600080fd5b50610096600480360381019061009191906102e0565b6100d3565b005b3480156100a457600080fd5b506100ad610171565b6040516100ba919061036c565b60405180910390f35b6100cb610195565b005b60015481565b60008054906101000a900473ffffffffffffffffffffffffffffffffffffffff1673ffffffffffffffffffffffffffffffffffffffff166370a08231826040518263ffffffff1660e01b815260040161012c9190610396565b602060405180830381865afa158015610149573d6000803e3d6000fd5b505050506040513d601f19601f8201168201806040525081019061016d91906103dd565b5050565b60008054906101000a900473ffffffffffffffffffffffffffffffffffffffff1681565b6000346001546101a59190610439565b905060008054906101000a900473ffffffffffffffffffffffffffffffffffffffff1673ffffffffffffffffffffffffffffffffffffffff1663a9059cbb33836040518363ffffffff1660e01b815260040161020292919061047b565b6020604051808303816000875af1158015610221573d6000803e3d6000fd5b505050506040513d601f19601f8201168201806040525081019061024591906104dc565b5050565b6000819050919050565b61025c81610249565b82525050565b60006020820190506102776000830184610253565b92915050565b600080fd5b600073ffffffffffffffffffffffffffffffffffffffff82169050919050565b60006102ad82610282565b9050919050565b6102bd816102a2565b81146102c857600080fd5b50565b6000813590506102da816102b4565b92915050565b6000602082840312156102f6576102f561027d565b5b6000610304848285016102cb565b91505092915050565b6000819050919050565b600061033261032d61032884610282565b61030d565b610282565b9050919050565b600061034482610317565b9050919050565b600061035682610339565b9050919050565b6103668161034b565b82525050565b6000602082019050610381600083018461035d565b92915050565b610390816102a2565b82525050565b60006020820190506103ab6000830184610387565b92915050565b6103ba81610249565b81146103c557600080fd5b50565b6000815190506103d7816103b1565b92915050565b6000602082840312156103f3576103f261027d565b5b6000610401848285016103c8565b91505092915050565b7f4e487b7100000000000000000000000000000000000000000000000000000000600052601160045260246000fd5b600061044482610249565b915061044f83610249565b925082820261045d81610249565b915082820484148315176104745761047361040a565b5b5092915050565b60006040820190506104906000830185610387565b61049d6020830184610253565b9392505050565b60008115159050919050565b6104b9816104a4565b81146104c457600080fd5b50565b6000815190506104d6816104b0565b92915050565b6000602082840312156104f2576104f161027d565b5b6000610500848285016104c7565b9150509291505056fea26469706673582212209f4d457524561105b8eff032d323f33601400972cda05dc0691e47db8bf6588064736f6c63430008110033",
  "immutableReferences": {},
  "source": "// SPDX-License-Identifier: MIT\r\n\r\npragma solidity >=0.4.22 <0.9.0;\r\n\r\nimport './Gelatoken.sol';\r\n\r\ncontract GelatoSwap{\r\n   \r\n   //creating a new token variable\r\n    Gelatoken public GelaToken;\r\n    uint public rate = 100;\r\n\r\n    constructor(Gelatoken _gelaToken){\r\n        GelaToken = _gelaToken;\r\n    }\r\n\r\n    function buyTokens() public payable {\r\n        uint amountToSend = rate * msg.value;\r\n        GelaToken.transfer(msg.sender, amountToSend);\r\n    }\r\n\r\n    function checkBalance(address account) public{\r\n        GelaToken.balanceOf(account);\r\n    }\r\n\r\n    \r\n}",
  "sourcePath": "C:\\Users\\Admin\\Desktop\\gelatoswap\\server\\contracts\\GelatoSwap.sol",
  "compiler": {
    "name": "solc",
    "version": "0.8.17+commit.8df45f5f.Emscripten.clang"
  },
  "schemaVersion": "3.4.10",
  "updatedAt": "2022-10-19T22:18:44.395Z",
  "devdoc": {
    "kind": "dev",
    "methods": {},
    "version": 1
  },
  "userdoc": {
    "kind": "user",
    "methods": {},
    "version": 1
  }
}